{
  "contractName": "Election",
  "abi": [
    {
      "inputs": [],
      "payable": false,
      "stateMutability": "nonpayable",
      "type": "constructor"
    },
    {
      "anonymous": false,
      "inputs": [
        {
          "indexed": true,
          "internalType": "uint256",
          "name": "_rank1",
          "type": "uint256"
        }
      ],
      "name": "votedEvent",
      "type": "event"
    },
    {
      "payable": true,
      "stateMutability": "payable",
      "type": "fallback"
    },
    {
      "constant": true,
      "inputs": [
        {
          "internalType": "uint256",
          "name": "",
          "type": "uint256"
        }
      ],
      "name": "candidates",
      "outputs": [
        {
          "internalType": "uint256",
          "name": "id",
          "type": "uint256"
        },
        {
          "internalType": "string",
          "name": "name",
          "type": "string"
        },
        {
          "internalType": "uint256",
          "name": "countRank1",
          "type": "uint256"
        },
        {
          "internalType": "uint256",
          "name": "countRank2",
          "type": "uint256"
        },
        {
          "internalType": "uint256",
          "name": "countRank3",
          "type": "uint256"
        },
        {
          "internalType": "uint256",
          "name": "countRank4",
          "type": "uint256"
        }
      ],
      "payable": false,
      "stateMutability": "view",
      "type": "function"
    },
    {
      "constant": true,
      "inputs": [],
      "name": "candidatesCount",
      "outputs": [
        {
          "internalType": "uint256",
          "name": "",
          "type": "uint256"
        }
      ],
      "payable": false,
      "stateMutability": "view",
      "type": "function"
    },
    {
      "constant": true,
      "inputs": [],
      "name": "messageCount",
      "outputs": [
        {
          "internalType": "uint256",
          "name": "",
          "type": "uint256"
        }
      ],
      "payable": false,
      "stateMutability": "view",
      "type": "function"
    },
    {
      "constant": true,
      "inputs": [
        {
          "internalType": "uint256",
          "name": "",
          "type": "uint256"
        }
      ],
      "name": "messages",
      "outputs": [
        {
          "internalType": "uint256",
          "name": "id",
          "type": "uint256"
        },
        {
          "internalType": "string",
          "name": "message_content",
          "type": "string"
        }
      ],
      "payable": false,
      "stateMutability": "view",
      "type": "function"
    },
    {
      "constant": true,
      "inputs": [
        {
          "internalType": "address",
          "name": "",
          "type": "address"
        }
      ],
      "name": "stake",
      "outputs": [
        {
          "internalType": "uint256",
          "name": "",
          "type": "uint256"
        }
      ],
      "payable": false,
      "stateMutability": "view",
      "type": "function"
    },
    {
      "constant": true,
      "inputs": [
        {
          "internalType": "address",
          "name": "",
          "type": "address"
        }
      ],
      "name": "voters",
      "outputs": [
        {
          "internalType": "bool",
          "name": "",
          "type": "bool"
        }
      ],
      "payable": false,
      "stateMutability": "view",
      "type": "function"
    },
    {
      "constant": false,
      "inputs": [],
      "name": "deposit",
      "outputs": [],
      "payable": true,
      "stateMutability": "payable",
      "type": "function"
    },
    {
      "constant": false,
      "inputs": [
        {
          "internalType": "uint256",
          "name": "_rank1",
          "type": "uint256"
        },
        {
          "internalType": "uint256",
          "name": "_rank2",
          "type": "uint256"
        },
        {
          "internalType": "uint256",
          "name": "_rank3",
          "type": "uint256"
        },
        {
          "internalType": "uint256",
          "name": "_rank4",
          "type": "uint256"
        }
      ],
      "name": "vote",
      "outputs": [],
      "payable": false,
      "stateMutability": "nonpayable",
      "type": "function"
    },
    {
      "constant": false,
      "inputs": [
        {
          "internalType": "string",
          "name": "_message",
          "type": "string"
        }
      ],
      "name": "createmessage",
      "outputs": [],
      "payable": false,
      "stateMutability": "nonpayable",
      "type": "function"
    }
  ],
  "bytecode": "0x60806040523480156200001157600080fd5b50620000586040518060400160405280600b81526020017f43616e64696461746520310000000000000000000000000000000000000000008152506200013060201b60201c565b6200009e6040518060400160405280600b81526020017f43616e64696461746520320000000000000000000000000000000000000000008152506200013060201b60201c565b620000e46040518060400160405280600b81526020017f43616e64696461746520330000000000000000000000000000000000000000008152506200013060201b60201c565b6200012a6040518060400160405280600b81526020017f43616e64696461746520340000000000000000000000000000000000000000008152506200013060201b60201c565b62000290565b6004600081548092919060010191905055506040518060c0016040528060045481526020018281526020016000815260200160008152602001600081526020016000815250600160006004548152602001908152602001600020600082015181600001556020820151816001019080519060200190620001b2929190620001e1565b5060408201518160020155606082015181600301556080820151816004015560a0820151816005015590505050565b828054600181600116156101000203166002900490600052602060002090601f016020900481019282601f106200022457805160ff191683800117855562000255565b8280016001018555821562000255579182015b828111156200025457825182559160200191906001019062000237565b5b50905062000264919062000268565b5090565b6200028d91905b80821115620002895760008160009055506001016200026f565b5090565b90565b610b5780620002a06000396000f3fe6080604052600436106100865760003560e01c80633477ee2e116100595780633477ee2e146102a35780633dbcc8d11461037a57806368c9e388146103a5578063a3ec138d146103fe578063d0e30db01461046757610086565b80630d80fefd146100905780632055603c1461014b57806326476204146102135780632d35a8a214610278575b61008e610471565b005b34801561009c57600080fd5b506100c9600480360360208110156100b357600080fd5b81019080803590602001909291905050506104c0565b6040518083815260200180602001828103825283818151815260200191508051906020019080838360005b8381101561010f5780820151818401526020810190506100f4565b50505050905090810190601f16801561013c5780820380516001836020036101000a031916815260200191505b50935050505060405180910390f35b34801561015757600080fd5b506102116004803603602081101561016e57600080fd5b810190808035906020019064010000000081111561018b57600080fd5b82018360208201111561019d57600080fd5b803590602001918460018302840111640100000000831117156101bf57600080fd5b91908080601f016020809104026020016040519081016040528093929190818152602001838380828437600081840152601f19601f82011690508083019250505050505050919291929050505061057c565b005b34801561021f57600080fd5b506102626004803603602081101561023657600080fd5b81019080803573ffffffffffffffffffffffffffffffffffffffff1690602001909291905050506105e7565b6040518082815260200191505060405180910390f35b34801561028457600080fd5b5061028d6105ff565b6040518082815260200191505060405180910390f35b3480156102af57600080fd5b506102dc600480360360208110156102c657600080fd5b8101908080359060200190929190505050610605565b6040518087815260200180602001868152602001858152602001848152602001838152602001828103825287818151815260200191508051906020019080838360005b8381101561033a57808201518184015260208101905061031f565b50505050905090810190601f1680156103675780820380516001836020036101000a031916815260200191505b5097505050505050505060405180910390f35b34801561038657600080fd5b5061038f6106d9565b6040518082815260200191505060405180910390f35b3480156103b157600080fd5b506103fc600480360360808110156103c857600080fd5b81019080803590602001909291908035906020019092919080359060200190929190803590602001909291905050506106df565b005b34801561040a57600080fd5b5061044d6004803603602081101561042157600080fd5b81019080803573ffffffffffffffffffffffffffffffffffffffff169060200190929190505050610a5d565b604051808215151515815260200191505060405180910390f35b61046f610471565b005b34600360003373ffffffffffffffffffffffffffffffffffffffff1673ffffffffffffffffffffffffffffffffffffffff16815260200190815260200160002060008282540192505081905550565b6002602052806000526040600020600091509050806000015490806001018054600181600116156101000203166002900480601f0160208091040260200160405190810160405280929190818152602001828054600181600116156101000203166002900480156105725780601f1061054757610100808354040283529160200191610572565b820191906000526020600020905b81548152906001019060200180831161055557829003601f168201915b5050505050905082565b60056000815480929190600101919050555060405180604001604052806005548152602001828152506002600060055481526020019081526020016000206000820151816000015560208201518160010190805190602001906105e0929190610a7d565b5090505050565b60036020528060005260406000206000915090505481565b60045481565b6001602052806000526040600020600091509050806000015490806001018054600181600116156101000203166002900480601f0160208091040260200160405190810160405280929190818152602001828054600181600116156101000203166002900480156106b75780601f1061068c576101008083540402835291602001916106b7565b820191906000526020600020905b81548152906001019060200180831161069a57829003601f168201915b5050505050908060020154908060030154908060040154908060050154905086565b60055481565b6000803373ffffffffffffffffffffffffffffffffffffffff1673ffffffffffffffffffffffffffffffffffffffff16815260200190815260200160002060009054906101000a900460ff161561073557600080fd5b6000600360003373ffffffffffffffffffffffffffffffffffffffff1673ffffffffffffffffffffffffffffffffffffffff168152602001908152602001600020541161078157600080fd5b8284141580156107915750818414155b801561079d5750808414155b80156107a95750818314155b80156107b55750808214155b6107be57600080fd5b60016000803373ffffffffffffffffffffffffffffffffffffffff1673ffffffffffffffffffffffffffffffffffffffff16815260200190815260200160002060006101000a81548160ff021916908315150217905550670de0b6b3a7640000600360003373ffffffffffffffffffffffffffffffffffffffff1673ffffffffffffffffffffffffffffffffffffffff168152602001908152602001600020548161086557fe5b046001600086815260200190815260200160002060020160008282540192505081905550670de0b6b3a7640000600360003373ffffffffffffffffffffffffffffffffffffffff1673ffffffffffffffffffffffffffffffffffffffff16815260200190815260200160002054816108d957fe5b046001600085815260200190815260200160002060030160008282540192505081905550670de0b6b3a7640000600360003373ffffffffffffffffffffffffffffffffffffffff1673ffffffffffffffffffffffffffffffffffffffff168152602001908152602001600020548161094d57fe5b046001600084815260200190815260200160002060040160008282540192505081905550670de0b6b3a7640000600360003373ffffffffffffffffffffffffffffffffffffffff1673ffffffffffffffffffffffffffffffffffffffff16815260200190815260200160002054816109c157fe5b0460016000838152602001908152602001600020600501600082825401925050819055506000600360003373ffffffffffffffffffffffffffffffffffffffff1673ffffffffffffffffffffffffffffffffffffffff16815260200190815260200160002081905550837ffff3c900d938d21d0990d786e819f29b8d05c1ef587b462b939609625b684b1660405160405180910390a250505050565b60006020528060005260406000206000915054906101000a900460ff1681565b828054600181600116156101000203166002900490600052602060002090601f016020900481019282601f10610abe57805160ff1916838001178555610aec565b82800160010185558215610aec579182015b82811115610aeb578251825591602001919060010190610ad0565b5b509050610af99190610afd565b5090565b610b1f91905b80821115610b1b576000816000905550600101610b03565b5090565b9056fea265627a7a72315820a31d73e0f1bc0f09d8b680924758012c9d87496c2d641de843a5edf52d184c4264736f6c63430005100032",
  "source": "pragma solidity ^0.5.0;\r\n\r\ncontract Election {\r\n\tstruct Candidate {\r\n\t\tuint id;\r\n\t\tstring name;\r\n\t\tuint countRank1;\r\n\t\tuint countRank2;\r\n\t\tuint countRank3;\r\n\t\tuint countRank4;\r\n\t}\r\n\r\n\tstruct Message {\r\n\t\tuint id;\r\n\t\tstring message_content;\r\n\t}\r\n\r\n\tmapping(address => bool) public voters;\r\n\tmapping(uint => Candidate) public candidates;\r\n\tmapping(uint => Message) public messages;\r\n\tmapping(address => uint) public stake;\r\n\tuint public candidatesCount;\r\n\tuint public messageCount;\r\n\r\n\tevent votedEvent (\r\n\t\tuint indexed _rank1\r\n\t);\r\n\r\n\tconstructor() public {\r\n\taddCandidate(\"Candidate 1\");\r\n\taddCandidate(\"Candidate 2\");\r\n\taddCandidate(\"Candidate 3\");\r\n\taddCandidate(\"Candidate 4\");\r\n\t}\r\n\r\n\tfunction addCandidate (string memory _name) private {\r\n\t\tcandidatesCount ++;\r\n\t\tcandidates[candidatesCount] = Candidate(candidatesCount, _name, 0 ,0 ,0 ,0);\r\n\t}\r\n\r\n\tfunction () external payable {\r\n\t\tdeposit(); // Fallback function, accepts deposits\r\n\t}\r\n\r\n\tfunction deposit () public payable {\r\n\t\tstake[msg.sender] += msg.value;\r\n\t}\r\n\r\n\tfunction vote (uint _rank1, uint _rank2, uint _rank3, uint _rank4) public {\r\n\t\trequire(!voters[msg.sender]); // Haven't voted before\r\n\t\trequire(stake[msg.sender] > 0); // Have deposited ETH \r\n\t\trequire((_rank1 != _rank2) && (_rank1 != _rank3) && (_rank1 != _rank4) && (_rank2 != _rank3) && (_rank3 != _rank4));\r\n\t\tvoters[msg.sender] = true;\r\n\r\n\t\tcandidates[_rank1].countRank1 += (stake[msg.sender]/1e18); \r\n\t\tcandidates[_rank2].countRank2 += (stake[msg.sender]/1e18);\r\n\t\tcandidates[_rank3].countRank3 += (stake[msg.sender]/1e18);\r\n\t\tcandidates[_rank4].countRank4 += (stake[msg.sender]/1e18);\r\n\r\n\t\tstake[msg.sender] = 0;\r\n\r\n\t\temit votedEvent(_rank1);\r\n\t}\r\n\r\n    function createmessage (string memory _message) public {\r\n      messageCount++;\r\n      messages[messageCount] = Message(messageCount, _message);\r\n    }\r\n\r\n}",
  "sourcePath": "C:/Users/Paul/election/contracts/Election.sol",
  "compiler": {
    "name": "solc",
    "version": "0.5.16+commit.9c3226ce.Emscripten.clang"
  },
  "schemaVersion": "3.0.22",
  "updatedAt": "2021-04-20T21:10:00.749Z",
  "networkType": "ethereum",
  "devdoc": {
    "methods": {}
  },
  "userdoc": {
    "methods": {}
  }
}